:03000000020016E5
:0300030002008C6C
:10001300020096D2AFD2AAD2A8758000759000755F
:10002300A000781C791C7B01752008752109D2106A
:10003300D211D2127523007524003080031200827E
:1000430030810312007812006780EFE5202010064C
:1000530003F52002005C23F521228520908521A051
:1000630075A00022889075A00175A000899075A0E5
:100073008075A00022B9E003020081E923F922B9C7
:10008300070302008BE903F922B8E003020095E8B5
:0D00930023F832B8070302009FE803F8329B
:00000001FF
